{
  "transactions": [
    {
      "hash": "0x9678798055a54915615c080d7138bdcce123f08f03c9a81b0639cdeb98e0806a",
      "transactionType": "CALL",
      "contractName": null,
      "contractAddress": "0x11208e1963f2b40815fb302c6c8e074eed431d0f",
      "function": "mintNFT(string)",
      "arguments": [
        "ipfs://bafybeig37ioir76s7mg5oobetncojcm3c3hxasyd4rvid4jqhy4gkaheg4/?filename=0-PUG.json"
      ],
      "transaction": {
        "from": "0x230908a09525e80978fb822ec7f1a2f3cfb29a3b",
        "to": "0x11208e1963f2b40815fb302c6c8e074eed431d0f",
        "gas": "0x3d632",
        "value": "0x0",
        "input": "0xfb37e88300000000000000000000000000000000000000000000000000000000000000200000000000000000000000000000000000000000000000000000000000000057697066733a2f2f62616679626569673337696f6972373673376d67356f6f6265746e636f6a636d3363336878617379643472766964346a71687934676b61686567342f3f66696c656e616d653d302d5055472e6a736f6e000000000000000000",
        "nonce": "0x6",
        "chainId": "0x14a34"
      },
      "additionalContracts": [],
      "isFixedGasLimit": false
    }
  ],
  "receipts": [
    {
      "status": "0x1",
      "cumulativeGasUsed": "0xc6a67",
      "logs": [
        {
          "address": "0x11208e1963f2b40815fb302c6c8e074eed431d0f",
          "topics": [
            "0xddf252ad1be2c89b69c2b068fc378daa952ba7f163c4a11628f55a4df523b3ef",
            "0x0000000000000000000000000000000000000000000000000000000000000000",
            "0x000000000000000000000000230908a09525e80978fb822ec7f1a2f3cfb29a3b",
            "0x0000000000000000000000000000000000000000000000000000000000000000"
          ],
          "data": "0x",
          "blockHash": "0x748adabd0b0170be86f2a600d8feb04577fe15275718eabc5f6baf1386c1bbc5",
          "blockNumber": "0x11d277c",
          "transactionHash": "0x9678798055a54915615c080d7138bdcce123f08f03c9a81b0639cdeb98e0806a",
          "transactionIndex": "0xa",
          "logIndex": "0xc",
          "removed": false
        }
      ],
      "logsBloom": "0x00000000000000020000000000020000000000000000000000000000000004000000000000000000000000000000000000000000000000000000000000000000000000000000000000000008000000000000000000000000000000000000000000000000020000000000000000000800000000000000000000000010000000000000000000000000000000000000000000000000000000000800000000000000000000000000000000000000000000000000000000000000000000000000000000000002000000000008000000000000000000000000000000000000000020000800000000000000000000000000000000000000000000000000000000000000",
      "type": "0x2",
      "transactionHash": "0x9678798055a54915615c080d7138bdcce123f08f03c9a81b0639cdeb98e0806a",
      "transactionIndex": "0xa",
      "blockHash": "0x748adabd0b0170be86f2a600d8feb04577fe15275718eabc5f6baf1386c1bbc5",
      "blockNumber": "0x11d277c",
      "gasUsed": "0x2c718",
      "effectiveGasPrice": "0x362",
      "from": "0x230908a09525e80978fb822ec7f1a2f3cfb29a3b",
      "to": "0x11208e1963f2b40815fb302c6c8e074eed431d0f",
      "contractAddress": null,
      "l1BaseFeeScalar": "0x44d",
      "l1BlobBaseFee": "0x1",
      "l1BlobBaseFeeScalar": "0xa118b",
      "l1Fee": "0x55271fc7e",
      "l1GasPrice": "0x21317acea",
      "l1GasUsed": "0x91a"
    }
  ],
  "libraries": [],
  "pending": [],
  "returns": {},
  "timestamp": 1733144031,
  "chain": 84532,
  "commit": "007da30"
}